{
  "contractName": "DappToken",
  "abi": [
    {
      "inputs": [
        {
          "internalType": "uint256",
          "name": "_initialSupply",
          "type": "uint256"
        }
      ],
      "payable": false,
      "stateMutability": "nonpayable",
      "type": "constructor"
    },
    {
      "constant": true,
      "inputs": [
        {
          "internalType": "address",
          "name": "",
          "type": "address"
        }
      ],
      "name": "balanceOf",
      "outputs": [
        {
          "internalType": "uint256",
          "name": "",
          "type": "uint256"
        }
      ],
      "payable": false,
      "stateMutability": "view",
      "type": "function"
    },
    {
      "constant": true,
      "inputs": [],
      "name": "totalSupply",
      "outputs": [
        {
          "internalType": "uint256",
          "name": "",
          "type": "uint256"
        }
      ],
      "payable": false,
      "stateMutability": "view",
      "type": "function"
    }
  ],
  "bytecode": "0x608060405234801561001057600080fd5b506040516101993803806101998339818101604052602081101561003357600080fd5b810190808051906020019092919050505080600160003373ffffffffffffffffffffffffffffffffffffffff1673ffffffffffffffffffffffffffffffffffffffff16815260200190815260200160002081905550806000819055505060fb8061009e6000396000f3fe6080604052348015600f57600080fd5b506004361060325760003560e01c806318160ddd14603757806370a08231146053575b600080fd5b603d60a8565b6040518082815260200191505060405180910390f35b609260048036036020811015606757600080fd5b81019080803573ffffffffffffffffffffffffffffffffffffffff16906020019092919050505060ae565b6040518082815260200191505060405180910390f35b60005481565b6001602052806000526040600020600091509050548156fea265627a7a72315820c382a7a1c51d8f2d34aa42ef5b8b55c91027f21dd448dedca7d3a5066374e5c464736f6c63430005100032",
  "source": "// SPDX-License-Identifier: MIT\r\npragma solidity >=0.4.22 <0.9.0;\r\n\r\ncontract DappToken {\r\n    //Constructor\r\n    //Set the total number of tokens\r\n    //Read the total number of tokens\r\n    uint256 public totalSupply;\r\n    mapping(address => uint256) public balanceOf;\r\n\r\n    constructor(uint256 _initialSupply) public{\r\n        balanceOf[msg.sender] = _initialSupply;\r\n        totalSupply = _initialSupply;\r\n        //allocate the initial supply\r\n    }\r\n\r\n\r\n}\r\n",
  "sourcePath": "C:/Users/JERRY/Desktop/contract/contracts/DappToken.sol",
  "compiler": {
    "name": "solc",
    "version": "0.5.16+commit.9c3226ce.Emscripten.clang"
  },
  "schemaVersion": "3.4.1",
  "updatedAt": "2022-01-24T18:12:30.755Z",
  "networkType": "ethereum",
  "devdoc": {
    "methods": {}
  },
  "userdoc": {
    "methods": {}
  }
}